{
    "contractName": "Staking",
    "abi": [
        {
            "inputs": [
                {
                    "internalType": "address",
                    "name": "_token",
                    "type": "address"
                }
            ],
            "stateMutability": "nonpayable",
            "type": "constructor"
        },
        {
            "anonymous": false,
            "inputs": [
                {
                    "indexed": false,
                    "internalType": "uint256",
                    "name": "start",
                    "type": "uint256"
                },
                {
                    "indexed": false,
                    "internalType": "uint256",
                    "name": "finish",
                    "type": "uint256"
                },
                {
                    "indexed": false,
                    "internalType": "uint256",
                    "name": "rewardsAmount",
                    "type": "uint256"
                },
                {
                    "indexed": false,
                    "internalType": "uint256",
                    "name": "apy",
                    "type": "uint256"
                }
            ],
            "name": "AddedReward",
            "type": "event"
        },
        {
            "anonymous": false,
            "inputs": [
                {
                    "indexed": true,
                    "internalType": "address",
                    "name": "previousOwner",
                    "type": "address"
                },
                {
                    "indexed": true,
                    "internalType": "address",
                    "name": "newOwner",
                    "type": "address"
                }
            ],
            "name": "OwnershipTransferred",
            "type": "event"
        },
        {
            "anonymous": false,
            "inputs": [
                {
                    "indexed": true,
                    "internalType": "address",
                    "name": "sender",
                    "type": "address"
                },
                {
                    "indexed": false,
                    "internalType": "uint256",
                    "name": "amount",
                    "type": "uint256"
                }
            ],
            "name": "Staked",
            "type": "event"
        },
        {
            "anonymous": false,
            "inputs": [
                {
                    "indexed": true,
                    "internalType": "address",
                    "name": "recipient",
                    "type": "address"
                },
                {
                    "indexed": false,
                    "internalType": "uint256",
                    "name": "amount",
                    "type": "uint256"
                },
                {
                    "indexed": false,
                    "internalType": "uint256",
                    "name": "reward",
                    "type": "uint256"
                }
            ],
            "name": "Unstaked",
            "type": "event"
        },
        {
            "inputs": [
                {
                    "internalType": "uint256",
                    "name": "_amount",
                    "type": "uint256"
                }
            ],
            "name": "addToStakingPool",
            "outputs": [],
            "stateMutability": "nonpayable",
            "type": "function"
        },
        {
            "inputs": [],
            "name": "finishTimeRewards",
            "outputs": [
                {
                    "internalType": "uint256",
                    "name": "",
                    "type": "uint256"
                }
            ],
            "stateMutability": "view",
            "type": "function"
        },
        {
            "inputs": [],
            "name": "owner",
            "outputs": [
                {
                    "internalType": "address",
                    "name": "",
                    "type": "address"
                }
            ],
            "stateMutability": "view",
            "type": "function"
        },
        {
            "inputs": [],
            "name": "renounceOwnership",
            "outputs": [],
            "stateMutability": "nonpayable",
            "type": "function"
        },
        {
            "inputs": [
                {
                    "internalType": "uint256",
                    "name": "_start",
                    "type": "uint256"
                },
                {
                    "internalType": "uint256",
                    "name": "_finish",
                    "type": "uint256"
                },
                {
                    "internalType": "uint256",
                    "name": "_rewardsAmount",
                    "type": "uint256"
                },
                {
                    "internalType": "uint256",
                    "name": "_apy",
                    "type": "uint256"
                }
            ],
            "name": "setRewards",
            "outputs": [],
            "stateMutability": "nonpayable",
            "type": "function"
        },
        {
            "inputs": [
                {
                    "internalType": "uint256",
                    "name": "_amount",
                    "type": "uint256"
                }
            ],
            "name": "stake",
            "outputs": [],
            "stateMutability": "nonpayable",
            "type": "function"
        },
        {
            "inputs": [
                {
                    "internalType": "address",
                    "name": "",
                    "type": "address"
                }
            ],
            "name": "stakeHoldersInPool",
            "outputs": [
                {
                    "internalType": "bool",
                    "name": "",
                    "type": "bool"
                }
            ],
            "stateMutability": "view",
            "type": "function"
        },
        {
            "inputs": [
                {
                    "internalType": "address",
                    "name": "",
                    "type": "address"
                }
            ],
            "name": "stakeholders",
            "outputs": [
                {
                    "internalType": "bool",
                    "name": "isStaked",
                    "type": "bool"
                },
                {
                    "internalType": "uint256",
                    "name": "stakedAmount",
                    "type": "uint256"
                },
                {
                    "internalType": "uint256",
                    "name": "stakeTime",
                    "type": "uint256"
                },
                {
                    "internalType": "uint256",
                    "name": "unstakeTime",
                    "type": "uint256"
                }
            ],
            "stateMutability": "view",
            "type": "function"
        },
        {
            "inputs": [],
            "name": "startTimeRewards",
            "outputs": [
                {
                    "internalType": "uint256",
                    "name": "",
                    "type": "uint256"
                }
            ],
            "stateMutability": "view",
            "type": "function"
        },
        {
            "inputs": [
                {
                    "internalType": "address",
                    "name": "newOwner",
                    "type": "address"
                }
            ],
            "name": "transferOwnership",
            "outputs": [],
            "stateMutability": "nonpayable",
            "type": "function"
        },
        {
            "inputs": [],
            "name": "unstake",
            "outputs": [],
            "stateMutability": "nonpayable",
            "type": "function"
        },
        {
            "inputs": [],
            "name": "withdrawAmounts",
            "outputs": [],
            "stateMutability": "nonpayable",
            "type": "function"
        }
    ],
    "bytecode": "60a060405234801561001057600080fd5b5060405161147638038061147683398101604081905261002f91610116565b610038336100c6565b6001600160a01b0381166100925760405162461bcd60e51b815260206004820152601e60248201527f5374616b696e673a20496e76616c696420746f6b656e20616464726573730000604482015260640160405180910390fd5b6001600160a01b0316608052620d2f00600655624f1a006007556028600855624c4b406009819055600a8055600c55610146565b600080546001600160a01b038381166001600160a01b0319831681178455604051919092169283917f8be0079c531659141344cd1fd0a4f28419497f9722a3daafe3b4186f6b6457e09190a35050565b60006020828403121561012857600080fd5b81516001600160a01b038116811461013f57600080fd5b9392505050565b6080516112f2610184600039600081816104c001528181610604015281816106fa01528181610c3401528181610d1f0152610ec401526112f26000f3fe608060405234801561001057600080fd5b50600436106100b45760003560e01c806376ac641f1161007157806376ac641f146101365780638da5cb5b1461013e578063a694fc3a14610159578063c07cfca91461016c578063f2fb39e5146101c7578063f2fde38b146101da57600080fd5b806308726ed0146100b95780630ac4f445146100ce5780631c685561146100ea5780632def6620146100f357806355324abb146100fb578063715018a61461012e575b600080fd5b6100cc6100c73660046110fc565b6101ed565b005b6100d760025481565b6040519081526020015b60405180910390f35b6100d760035481565b6100cc6102c1565b61011e610109366004611115565b60056020526000908152604090205460ff1681565b60405190151581526020016100e1565b6100cc61058c565b6100cc6105c2565b6000546040516001600160a01b0390911681526020016100e1565b6100cc6101673660046110fc565b610773565b6101a561017a366004611115565b600460205260009081526040902080546001820154600283015460039093015460ff90921692909184565b60408051941515855260208501939093529183015260608201526080016100e1565b6100cc6101d5366004611145565b6107ac565b6100cc6101e8366004611115565b610a3b565b3360009081526004602052604090205460ff16156102265760405162461bcd60e51b815260040161021d90611177565b60405180910390fd5b600954600b5461023690836111dc565b11156102845760405162461bcd60e51b815260206004820152601d60248201527f5374616b696e673a207374616b696e6720706f6f6c206973206f766572000000604482015260640161021d565b80600b600082825461029691906111dc565b9091555050336000908152600560205260409020805460ff191660011790556102be81610ad3565b50565b3360009081526004602052604090205460ff1615156001146103345760405162461bcd60e51b815260206004820152602660248201527f5374616b696e673a204f6e6c79207374616b65722063616e2063616c6c2066756044820152653731ba34b7b760d11b606482015260840161021d565b3360009081526004602052604090206002015460065461035490826111dc565b42116103b35760405162461bcd60e51b815260206004820152602860248201527f5374616b696e673a20636f6f6c646f776e20706572696f64206973206e6f7420604482015267199a5b9a5cda195960c21b606482015260840161021d565b3360009081526004602081815260408084204260038201819055600584529185205493909252600190910154600754919360ff9093169290916103f690866111dc565b421015610446578215610433576064600854610418600b548888600a54610fae565b61042291906111f4565b61042c9190611213565b905061046d565b6064600854610418848888600e54610fae565b821561045c5761042c600b548686600a54610fae565b61046a828686600e54610fae565b90505b3360009081526004602052604081206001015461048b9083906111dc565b905081600f600082825461049f91906111dc565b909155505060405163a9059cbb60e01b8152336004820152602481018290527f00000000000000000000000000000000000000000000000000000000000000006001600160a01b03169063a9059cbb906044016020604051808303816000875af1158015610511573d6000803e3d6000fd5b505050506040513d601f19601f820116820180604052508101906105359190611235565b50604080518281526020810184905233917f7fc4727e062e336010f2c282598ef5f14facb3de68cf8195c2f23e1454b2b74e910160405180910390a261057b6001610ff2565b61058433611049565b505050505050565b6000546001600160a01b031633146105b65760405162461bcd60e51b815260040161021d90611257565b6105c060006110ac565b565b6000546001600160a01b031633146105ec5760405162461bcd60e51b815260040161021d90611257565b6040516370a0823160e01b81523060048201526000907f00000000000000000000000000000000000000000000000000000000000000006001600160a01b0316906370a0823190602401602060405180830381865afa158015610653573d6000803e3d6000fd5b505050506040513d601f19601f82011682018060405250810190610677919061128c565b9050600081116106de5760405162461bcd60e51b815260206004820152602c60248201527f5374616b696e673a20636f6e747261637420686173206e6f7420746f6b656e7360448201526b20746f20776974686472617760a01b606482015260840161021d565b60405163a9059cbb60e01b8152336004820152602481018290527f00000000000000000000000000000000000000000000000000000000000000006001600160a01b03169063a9059cbb906044016020604051808303816000875af115801561074b573d6000803e3d6000fd5b505050506040513d601f19601f8201168201806040525081019061076f9190611235565b5050565b3360009081526004602052604090205460ff16156107a35760405162461bcd60e51b815260040161021d90611177565b6102be81610ad3565b6000546001600160a01b031633146107d65760405162461bcd60e51b815260040161021d90611257565b60035484116108415760405162461bcd60e51b815260206004820152603160248201527f5374616b696e673a2070726576696f757320726577617264607320706572696f60448201527019081a5cc81b9bdd08199a5b9a5cda1959607a1b606482015260840161021d565b600154156108ac5760405162461bcd60e51b815260206004820152603260248201527f5374616b696e673a206e6f7420616c6c207374616b65686f6c6465727320756e6044820152717374616b6520746865697220746f6b656e7360701b606482015260840161021d565b4284101580156108bb57508383115b6109125760405162461bcd60e51b815260206004820152602260248201527f5374616b696e673a206e6f7420636f72726563742074696d6520696e74657276604482015261185b60f21b606482015260840161021d565b6000821161097b5760405162461bcd60e51b815260206004820152603060248201527f5374616b696e673a207265776172647320616d6f756e742073686f756c64206260448201526f65206d6f7265207468616e207a65726f60801b606482015260840161021d565b600081116109d95760405162461bcd60e51b815260206004820152602560248201527f5374616b696e673a206170792073686f756c64206265206d6f7265207468616e604482015264207a65726f60d81b606482015260840161021d565b60028490556003839055600d829055600e8190556040805185815260208101859052908101839052606081018290527f91e367a7c7ee6e42f71c2111a05adc4678e8e8a99612dcd1a802c79a8bf271759060800160405180910390a150505050565b6000546001600160a01b03163314610a655760405162461bcd60e51b815260040161021d90611257565b6001600160a01b038116610aca5760405162461bcd60e51b815260206004820152602660248201527f4f776e61626c653a206e6577206f776e657220697320746865207a65726f206160448201526564647265737360d01b606482015260840161021d565b6102be816110ac565b600254421015610b445760405162461bcd60e51b815260206004820152603660248201527f5374616b696e673a207374616b65206561726c79207468616e20726577617264604482015275181cc81a5b9d195c9d985b081a5cc81cdd185c9d195960521b606482015260840161021d565b600354421115610bbc5760405162461bcd60e51b815260206004820152603860248201527f5374616b696e673a207374616b65206c6174656c79207468616e20726577617260448201527f64607320696e74657276616c2069732066696e69736865640000000000000000606482015260840161021d565b60008111610c1d5760405162461bcd60e51b815260206004820152602860248201527f5374616b696e673a20616d6f756e742073686f756c64206265206d6f7265207460448201526768616e207a65726f60c01b606482015260840161021d565b6040516370a0823160e01b815233600482015281907f00000000000000000000000000000000000000000000000000000000000000006001600160a01b0316906370a0823190602401602060405180830381865afa158015610c83573d6000803e3d6000fd5b505050506040513d601f19601f82011682018060405250810190610ca7919061128c565b1015610d055760405162461bcd60e51b815260206004820152602760248201527f5374616b696e673a2063616e6e6f74207374616b65206d6f7265207468616e206044820152663cb7ba9037bbb760c91b606482015260840161021d565b600c546040516370a0823160e01b815230600482015282907f00000000000000000000000000000000000000000000000000000000000000006001600160a01b0316906370a0823190602401602060405180830381865afa158015610d6e573d6000803e3d6000fd5b505050506040513d601f19601f82011682018060405250810190610d92919061128c565b610d9c91906111dc565b1115610df65760405162461bcd60e51b815260206004820152602360248201527f5374616b696e673a207374616b696e67206361706162696c697479206973206f6044820152623b32b960e91b606482015260840161021d565b3360009081526005602052604081205460ff1615610e2557610e1e8242600354600a54610fae565b9050610e38565b610e358242600354600e54610fae565b90505b600d5481600f54610e4991906111dc565b1115610ea25760405162461bcd60e51b815260206004820152602260248201527f5374616b696e673a20617661696c61626c652072657761726473206973206f7660448201526132b960f11b606482015260840161021d565b6040516323b872dd60e01b8152336004820152306024820152604481018390527f00000000000000000000000000000000000000000000000000000000000000006001600160a01b0316906323b872dd906064016020604051808303816000875af1158015610f15573d6000803e3d6000fd5b505050506040513d601f19601f82011682018060405250810190610f399190611235565b50610f48600180546001019055565b3360008181526004602052604090819020805460ff191660019081178255810185905542600290910155517f9e71bc8eea02a63969f509818f2dafb9254532904319f9dbda79b67bd34a5f3d90610fa29085815260200190565b60405180910390a25050565b60006301e13380610fbf85856112a5565b6064610fcb85896111f4565b610fd59190611213565b610fdf91906111f4565b610fe99190611213565b95945050505050565b8054806110415760405162461bcd60e51b815260206004820152601b60248201527f436f756e7465723a2064656372656d656e74206f766572666c6f770000000000604482015260640161021d565b600019019055565b6001600160a01b03811660009081526005602052604090205460ff161561108b576001600160a01b0381166000908152600560205260409020805460ff191690555b6001600160a01b03166000908152600460205260409020805460ff19169055565b600080546001600160a01b038381166001600160a01b0319831681178455604051919092169283917f8be0079c531659141344cd1fd0a4f28419497f9722a3daafe3b4186f6b6457e09190a35050565b60006020828403121561110e57600080fd5b5035919050565b60006020828403121561112757600080fd5b81356001600160a01b038116811461113e57600080fd5b9392505050565b6000806000806080858703121561115b57600080fd5b5050823594602084013594506040840135936060013592509050565b6020808252602f908201527f5374616b696e673a20616c6c20657863657074206f66207374616b657220636160408201526e371031b0b63610333ab731ba34b7b760891b606082015260800190565b634e487b7160e01b600052601160045260246000fd5b600082198211156111ef576111ef6111c6565b500190565b600081600019048311821515161561120e5761120e6111c6565b500290565b60008261123057634e487b7160e01b600052601260045260246000fd5b500490565b60006020828403121561124757600080fd5b8151801515811461113e57600080fd5b6020808252818101527f4f776e61626c653a2063616c6c6572206973206e6f7420746865206f776e6572604082015260600190565b60006020828403121561129e57600080fd5b5051919050565b6000828210156112b7576112b76111c6565b50039056fea2646970667358221220a5adf7703a62db22cd883a635b71ad68ef6a6cded5c207a8924bda646984959c64736f6c634300080c0033",
    "sourcePath": "c:/SYNE/solidity-internship/contracts/Staking.sol",
    "compiler": {
        "name": "solc",
        "version": "0.8.12+commit.f00d7308"
    },
    "functionHashes": {
        "addToStakingPool(uint256)": "08726ed0",
        "finishTimeRewards()": "1c685561",
        "owner()": "8da5cb5b",
        "renounceOwnership()": "715018a6",
        "setRewards(uint256,uint256,uint256,uint256)": "f2fb39e5",
        "stake(uint256)": "a694fc3a",
        "stakeHoldersInPool(address)": "55324abb",
        "stakeholders(address)": "c07cfca9",
        "startTimeRewards()": "0ac4f445",
        "transferOwnership(address)": "f2fde38b",
        "unstake()": "2def6620",
        "withdrawAmounts()": "76ac641f"
    },
    "gasEstimates": {
        "creation": {
            "codeDepositCost": "970000",
            "executionCost": "infinite",
            "totalCost": "infinite"
        },
        "external": {
            "addToStakingPool(uint256)": "infinite",
            "finishTimeRewards()": "2329",
            "owner()": "2323",
            "renounceOwnership()": "28225",
            "setRewards(uint256,uint256,uint256,uint256)": "97189",
            "stake(uint256)": "infinite",
            "stakeHoldersInPool(address)": "2585",
            "stakeholders(address)": "8967",
            "startTimeRewards()": "2307",
            "transferOwnership(address)": "28384",
            "unstake()": "infinite",
            "withdrawAmounts()": "infinite"
        },
        "internal": {
            "_stake(uint256)": "infinite",
            "calculateRewardAmount(uint256,uint256,uint256,uint256)": "infinite",
            "deleteFromStake(address)": "50835"
        }
    }
}